
tcp_w5500_cpp.elf:     file format elf32-avr

Sections:
Idx Name          Size      VMA       LMA       File off  Algn
  0 .data         00000018  00800100  0000018e  00000202  2**0
                  CONTENTS, ALLOC, LOAD, DATA
  1 .text         0000018e  00000000  00000000  00000074  2**1
                  CONTENTS, ALLOC, LOAD, READONLY, CODE
  2 .comment      00000030  00000000  00000000  0000021a  2**0
                  CONTENTS, READONLY
  3 .note.gnu.avr.deviceinfo 00000040  00000000  00000000  0000024c  2**2
                  CONTENTS, READONLY
  4 .debug_aranges 00000178  00000000  00000000  0000028c  2**0
                  CONTENTS, READONLY, DEBUGGING
  5 .debug_info   00001858  00000000  00000000  00000404  2**0
                  CONTENTS, READONLY, DEBUGGING
  6 .debug_abbrev 00000436  00000000  00000000  00001c5c  2**0
                  CONTENTS, READONLY, DEBUGGING
  7 .debug_line   00000b7c  00000000  00000000  00002092  2**0
                  CONTENTS, READONLY, DEBUGGING
  8 .debug_frame  00000380  00000000  00000000  00002c10  2**2
                  CONTENTS, READONLY, DEBUGGING
  9 .debug_str    000009e5  00000000  00000000  00002f90  2**0
                  CONTENTS, READONLY, DEBUGGING
 10 .debug_loc    00001202  00000000  00000000  00003975  2**0
                  CONTENTS, READONLY, DEBUGGING
 11 .debug_ranges 00000158  00000000  00000000  00004b77  2**0
                  CONTENTS, READONLY, DEBUGGING

Disassembly of section .text:

00000000 <__vectors>:
   0:	45 c0       	rjmp	.+138    	; 0x8c <__ctors_end>
   2:	00 00       	nop
   4:	60 c0       	rjmp	.+192    	; 0xc6 <__bad_interrupt>
   6:	00 00       	nop
   8:	5e c0       	rjmp	.+188    	; 0xc6 <__bad_interrupt>
   a:	00 00       	nop
   c:	5c c0       	rjmp	.+184    	; 0xc6 <__bad_interrupt>
   e:	00 00       	nop
  10:	5a c0       	rjmp	.+180    	; 0xc6 <__bad_interrupt>
  12:	00 00       	nop
  14:	58 c0       	rjmp	.+176    	; 0xc6 <__bad_interrupt>
  16:	00 00       	nop
  18:	56 c0       	rjmp	.+172    	; 0xc6 <__bad_interrupt>
  1a:	00 00       	nop
  1c:	54 c0       	rjmp	.+168    	; 0xc6 <__bad_interrupt>
  1e:	00 00       	nop
  20:	52 c0       	rjmp	.+164    	; 0xc6 <__bad_interrupt>
  22:	00 00       	nop
  24:	50 c0       	rjmp	.+160    	; 0xc6 <__bad_interrupt>
  26:	00 00       	nop
  28:	4e c0       	rjmp	.+156    	; 0xc6 <__bad_interrupt>
  2a:	00 00       	nop
  2c:	4c c0       	rjmp	.+152    	; 0xc6 <__bad_interrupt>
  2e:	00 00       	nop
  30:	4a c0       	rjmp	.+148    	; 0xc6 <__bad_interrupt>
  32:	00 00       	nop
  34:	48 c0       	rjmp	.+144    	; 0xc6 <__bad_interrupt>
  36:	00 00       	nop
  38:	46 c0       	rjmp	.+140    	; 0xc6 <__bad_interrupt>
  3a:	00 00       	nop
  3c:	44 c0       	rjmp	.+136    	; 0xc6 <__bad_interrupt>
  3e:	00 00       	nop
  40:	42 c0       	rjmp	.+132    	; 0xc6 <__bad_interrupt>
  42:	00 00       	nop
  44:	40 c0       	rjmp	.+128    	; 0xc6 <__bad_interrupt>
  46:	00 00       	nop
  48:	3e c0       	rjmp	.+124    	; 0xc6 <__bad_interrupt>
  4a:	00 00       	nop
  4c:	3c c0       	rjmp	.+120    	; 0xc6 <__bad_interrupt>
  4e:	00 00       	nop
  50:	3a c0       	rjmp	.+116    	; 0xc6 <__bad_interrupt>
  52:	00 00       	nop
  54:	38 c0       	rjmp	.+112    	; 0xc6 <__bad_interrupt>
  56:	00 00       	nop
  58:	36 c0       	rjmp	.+108    	; 0xc6 <__bad_interrupt>
  5a:	00 00       	nop
  5c:	34 c0       	rjmp	.+104    	; 0xc6 <__bad_interrupt>
  5e:	00 00       	nop
  60:	32 c0       	rjmp	.+100    	; 0xc6 <__bad_interrupt>
  62:	00 00       	nop
  64:	30 c0       	rjmp	.+96     	; 0xc6 <__bad_interrupt>
  66:	00 00       	nop
  68:	2e c0       	rjmp	.+92     	; 0xc6 <__bad_interrupt>
  6a:	00 00       	nop
  6c:	2c c0       	rjmp	.+88     	; 0xc6 <__bad_interrupt>
  6e:	00 00       	nop
  70:	2a c0       	rjmp	.+84     	; 0xc6 <__bad_interrupt>
  72:	00 00       	nop
  74:	28 c0       	rjmp	.+80     	; 0xc6 <__bad_interrupt>
  76:	00 00       	nop
  78:	26 c0       	rjmp	.+76     	; 0xc6 <__bad_interrupt>
  7a:	00 00       	nop
  7c:	24 c0       	rjmp	.+72     	; 0xc6 <__bad_interrupt>
  7e:	00 00       	nop
  80:	22 c0       	rjmp	.+68     	; 0xc6 <__bad_interrupt>
  82:	00 00       	nop
  84:	20 c0       	rjmp	.+64     	; 0xc6 <__bad_interrupt>
  86:	00 00       	nop
  88:	1e c0       	rjmp	.+60     	; 0xc6 <__bad_interrupt>
	...

0000008c <__ctors_end>:
  8c:	11 24       	eor	r1, r1
  8e:	1f be       	out	0x3f, r1	; 63
  90:	cf ef       	ldi	r28, 0xFF	; 255
  92:	d0 e1       	ldi	r29, 0x10	; 16
  94:	de bf       	out	0x3e, r29	; 62
  96:	cd bf       	out	0x3d, r28	; 61

00000098 <__do_copy_data>:
  98:	11 e0       	ldi	r17, 0x01	; 1
  9a:	a0 e0       	ldi	r26, 0x00	; 0
  9c:	b1 e0       	ldi	r27, 0x01	; 1
  9e:	ee e8       	ldi	r30, 0x8E	; 142
  a0:	f1 e0       	ldi	r31, 0x01	; 1
  a2:	00 e0       	ldi	r16, 0x00	; 0
  a4:	0b bf       	out	0x3b, r16	; 59
  a6:	02 c0       	rjmp	.+4      	; 0xac <__do_copy_data+0x14>
  a8:	07 90       	elpm	r0, Z+
  aa:	0d 92       	st	X+, r0
  ac:	a8 31       	cpi	r26, 0x18	; 24
  ae:	b1 07       	cpc	r27, r17
  b0:	d9 f7       	brne	.-10     	; 0xa8 <__do_copy_data+0x10>

000000b2 <__do_clear_bss>:
  b2:	21 e0       	ldi	r18, 0x01	; 1
  b4:	a8 e1       	ldi	r26, 0x18	; 24
  b6:	b1 e0       	ldi	r27, 0x01	; 1
  b8:	01 c0       	rjmp	.+2      	; 0xbc <.do_clear_bss_start>

000000ba <.do_clear_bss_loop>:
  ba:	1d 92       	st	X+, r1

000000bc <.do_clear_bss_start>:
  bc:	a8 31       	cpi	r26, 0x18	; 24
  be:	b2 07       	cpc	r27, r18
  c0:	e1 f7       	brne	.-8      	; 0xba <.do_clear_bss_loop>
  c2:	53 d0       	rcall	.+166    	; 0x16a <main>
  c4:	62 c0       	rjmp	.+196    	; 0x18a <_exit>

000000c6 <__bad_interrupt>:
  c6:	9c cf       	rjmp	.-200    	; 0x0 <__vectors>

000000c8 <wizchip_cris_enter>:
      WIZCHIP.IF.BUS._write_data  = wizchip_bus_writedata;
   }
   else
   {
      WIZCHIP.IF.BUS._read_data   = bus_rb;
      WIZCHIP.IF.BUS._write_data  = bus_wb;
  c8:	08 95       	ret

000000ca <wizchip_cris_exit>:
  ca:	08 95       	ret

000000cc <wizchip_cs_select>:
  cc:	08 95       	ret

000000ce <wizchip_cs_deselect>:
  ce:	08 95       	ret

000000d0 <wizchip_bus_readdata>:
  d0:	fb 01       	movw	r30, r22
  d2:	80 81       	ld	r24, Z
  d4:	08 95       	ret

000000d6 <wizchip_bus_writedata>:
  d6:	fb 01       	movw	r30, r22
  d8:	40 83       	st	Z, r20
  da:	08 95       	ret

000000dc <wizchip_spi_readbyte>:
  dc:	80 e0       	ldi	r24, 0x00	; 0
  de:	08 95       	ret

000000e0 <wizchip_spi_writebyte>:
  e0:	08 95       	ret

000000e2 <reg_wizchip_cs_cbfunc>:
  e2:	00 97       	sbiw	r24, 0x00	; 0
  e4:	19 f0       	breq	.+6      	; 0xec <reg_wizchip_cs_cbfunc+0xa>
  e6:	61 15       	cp	r22, r1
  e8:	71 05       	cpc	r23, r1
  ea:	59 f4       	brne	.+22     	; 0x102 <reg_wizchip_cs_cbfunc+0x20>
  ec:	e0 e0       	ldi	r30, 0x00	; 0
  ee:	f1 e0       	ldi	r31, 0x01	; 1
  f0:	86 e6       	ldi	r24, 0x66	; 102
  f2:	90 e0       	ldi	r25, 0x00	; 0
  f4:	95 87       	std	Z+13, r25	; 0x0d
  f6:	84 87       	std	Z+12, r24	; 0x0c
  f8:	87 e6       	ldi	r24, 0x67	; 103
  fa:	90 e0       	ldi	r25, 0x00	; 0
  fc:	97 87       	std	Z+15, r25	; 0x0f
  fe:	86 87       	std	Z+14, r24	; 0x0e
 100:	08 95       	ret
 102:	e0 e0       	ldi	r30, 0x00	; 0
 104:	f1 e0       	ldi	r31, 0x01	; 1
 106:	95 87       	std	Z+13, r25	; 0x0d
 108:	84 87       	std	Z+12, r24	; 0x0c
 10a:	77 87       	std	Z+15, r23	; 0x0f
 10c:	66 87       	std	Z+14, r22	; 0x0e
 10e:	08 95       	ret

00000110 <reg_wizchip_spi_cbfunc>:
   }
}

void reg_wizchip_spi_cbfunc(uint8_t (*spi_rb)(void), void (*spi_wb)(uint8_t wb))
{
   while(!(WIZCHIP.if_mode & _WIZCHIP_IO_MODE_SPI_));
 110:	20 91 00 01 	lds	r18, 0x0100
 114:	30 91 01 01 	lds	r19, 0x0101
 118:	22 27       	eor	r18, r18
 11a:	32 70       	andi	r19, 0x02	; 2
 11c:	21 15       	cp	r18, r1
 11e:	31 05       	cpc	r19, r1
 120:	e9 f3       	breq	.-6      	; 0x11c <reg_wizchip_spi_cbfunc+0xc>
   
   if(!spi_rb || !spi_wb)
 122:	00 97       	sbiw	r24, 0x00	; 0
 124:	19 f0       	breq	.+6      	; 0x12c <reg_wizchip_spi_cbfunc+0x1c>
 126:	61 15       	cp	r22, r1
 128:	71 05       	cpc	r23, r1
 12a:	59 f4       	brne	.+22     	; 0x142 <reg_wizchip_spi_cbfunc+0x32>
   {
      WIZCHIP.IF.SPI._read_byte   = wizchip_spi_readbyte;
 12c:	e0 e0       	ldi	r30, 0x00	; 0
 12e:	f1 e0       	ldi	r31, 0x01	; 1
 130:	8e e6       	ldi	r24, 0x6E	; 110
 132:	90 e0       	ldi	r25, 0x00	; 0
 134:	91 8b       	std	Z+17, r25	; 0x11
 136:	80 8b       	std	Z+16, r24	; 0x10
      WIZCHIP.IF.SPI._write_byte  = wizchip_spi_writebyte;
 138:	80 e7       	ldi	r24, 0x70	; 112
 13a:	90 e0       	ldi	r25, 0x00	; 0
 13c:	93 8b       	std	Z+19, r25	; 0x13
 13e:	82 8b       	std	Z+18, r24	; 0x12
 140:	08 95       	ret
   }
   else
   {
      WIZCHIP.IF.SPI._read_byte   = spi_rb;
 142:	e0 e0       	ldi	r30, 0x00	; 0
 144:	f1 e0       	ldi	r31, 0x01	; 1
 146:	91 8b       	std	Z+17, r25	; 0x11
 148:	80 8b       	std	Z+16, r24	; 0x10
      WIZCHIP.IF.SPI._write_byte  = spi_wb;
 14a:	73 8b       	std	Z+19, r23	; 0x13
 14c:	62 8b       	std	Z+18, r22	; 0x12
 14e:	08 95       	ret

00000150 <_Z14wizchip_selectv>:
}


void  wizchip_select(void)
{
	PORTB&=~(1<<PORTB0);
 150:	c0 98       	cbi	0x18, 0	; 24
 152:	08 95       	ret

00000154 <_Z16wizchip_deselectv>:
}

void  wizchip_deselect(void)
{
	PORTB|=(1<<PORTB0);
 154:	c0 9a       	sbi	0x18, 0	; 24
 156:	08 95       	ret

00000158 <_Z13wizchip_writeh>:
}

void  wizchip_write(uint8_t wb)
{
	/* Start transmission */
	SPDR = wb;
 158:	8f b9       	out	0x0f, r24	; 15
	/* Wait for transmission complete */
	while(!(SPSR & (1<<SPIF)))
 15a:	77 9b       	sbis	0x0e, 7	; 14
 15c:	fe cf       	rjmp	.-4      	; 0x15a <_Z13wizchip_writeh+0x2>
	;
}
 15e:	08 95       	ret

00000160 <_Z12wizchip_readv>:

uint8_t wizchip_read()
{
	/* Start transmission */
	SPDR = 0x00;
 160:	1f b8       	out	0x0f, r1	; 15
	/* Wait for transmission complete */
	while(!(SPSR & (1<<SPIF)))
 162:	77 9b       	sbis	0x0e, 7	; 14
 164:	fe cf       	rjmp	.-4      	; 0x162 <_Z12wizchip_readv+0x2>
	;
	return SPDR;
 166:	8f b1       	in	r24, 0x0f	; 15
 168:	08 95       	ret

0000016a <main>:

int main(void)
{
	//SPI_MasterInit
	/* Set MOSI and SCK output, all others input */
	DDRB|= (1<<DDRB2)|(1<<DDRB1)|(1<<DDRB0);
 16a:	87 b3       	in	r24, 0x17	; 23
 16c:	87 60       	ori	r24, 0x07	; 7
 16e:	87 bb       	out	0x17, r24	; 23
	/* Enable SPI, Master, set clock rate fck/2 */
	SPCR = (1<<SPE)|(1<<MSTR)|(1<<CPOL)|(1<<CPHA)|(0<<SPR0)|(0<<SPR1);
 170:	8c e5       	ldi	r24, 0x5C	; 92
 172:	8d b9       	out	0x0d, r24	; 13
	//SPSR|=(1<<SPI2X);
		
	reg_wizchip_cs_cbfunc(wizchip_select, wizchip_deselect);
 174:	6a ea       	ldi	r22, 0xAA	; 170
 176:	70 e0       	ldi	r23, 0x00	; 0
 178:	88 ea       	ldi	r24, 0xA8	; 168
 17a:	90 e0       	ldi	r25, 0x00	; 0
 17c:	b2 df       	rcall	.-156    	; 0xe2 <reg_wizchip_cs_cbfunc>
	reg_wizchip_spi_cbfunc(wizchip_read, wizchip_write);
 17e:	6c ea       	ldi	r22, 0xAC	; 172
 180:	70 e0       	ldi	r23, 0x00	; 0
 182:	80 eb       	ldi	r24, 0xB0	; 176
 184:	90 e0       	ldi	r25, 0x00	; 0
 186:	c4 df       	rcall	.-120    	; 0x110 <reg_wizchip_spi_cbfunc>
void  wizchip_select(void);
void  wizchip_deselect(void);
void  wizchip_write(uint8_t wb);
uint8_t wizchip_read();

int main(void)
 188:	ff cf       	rjmp	.-2      	; 0x188 <main+0x1e>

0000018a <_exit>:
 18a:	f8 94       	cli

0000018c <__stop_program>:
 18c:	ff cf       	rjmp	.-2      	; 0x18c <__stop_program>
